{
  "_format": "hh-sol-artifact-1",
  "contractName": "KYC",
  "sourceName": "contracts/KYC.sol",
  "abi": [
    {
      "inputs": [],
      "stateMutability": "nonpayable",
      "type": "constructor"
    },
    {
      "inputs": [
        {
          "internalType": "string",
          "name": "bankName",
          "type": "string"
        },
        {
          "internalType": "string",
          "name": "regNumber",
          "type": "string"
        },
        {
          "internalType": "address",
          "name": "bankAddress",
          "type": "address"
        }
      ],
      "name": "addBank",
      "outputs": [],
      "stateMutability": "nonpayable",
      "type": "function"
    },
    {
      "inputs": [
        {
          "internalType": "string",
          "name": "_userName",
          "type": "string"
        },
        {
          "internalType": "string",
          "name": "_customerData",
          "type": "string"
        }
      ],
      "name": "addCustomer",
      "outputs": [],
      "stateMutability": "nonpayable",
      "type": "function"
    },
    {
      "inputs": [
        {
          "internalType": "string",
          "name": "_userName",
          "type": "string"
        },
        {
          "internalType": "string",
          "name": "_customerData",
          "type": "string"
        }
      ],
      "name": "addRequest",
      "outputs": [],
      "stateMutability": "nonpayable",
      "type": "function"
    },
    {
      "inputs": [
        {
          "internalType": "string",
          "name": "_userName",
          "type": "string"
        }
      ],
      "name": "downVoteCustomer",
      "outputs": [],
      "stateMutability": "nonpayable",
      "type": "function"
    },
    {
      "inputs": [
        {
          "internalType": "address",
          "name": "_bankAddress",
          "type": "address"
        }
      ],
      "name": "getBankComplaints",
      "outputs": [
        {
          "internalType": "uint256",
          "name": "",
          "type": "uint256"
        }
      ],
      "stateMutability": "view",
      "type": "function"
    },
    {
      "inputs": [
        {
          "internalType": "string",
          "name": "_userName",
          "type": "string"
        },
        {
          "internalType": "string",
          "name": "_newcustomerData",
          "type": "string"
        }
      ],
      "name": "modifyCustomer",
      "outputs": [],
      "stateMutability": "nonpayable",
      "type": "function"
    },
    {
      "inputs": [
        {
          "internalType": "bool",
          "name": "isAllowed",
          "type": "bool"
        },
        {
          "internalType": "address",
          "name": "bankAddress",
          "type": "address"
        }
      ],
      "name": "modifyIsAllowedToVoteStateOfBank",
      "outputs": [],
      "stateMutability": "nonpayable",
      "type": "function"
    },
    {
      "inputs": [
        {
          "internalType": "address",
          "name": "bankAddress",
          "type": "address"
        }
      ],
      "name": "removeBank",
      "outputs": [],
      "stateMutability": "nonpayable",
      "type": "function"
    },
    {
      "inputs": [
        {
          "internalType": "string",
          "name": "_userName",
          "type": "string"
        }
      ],
      "name": "removeRequest",
      "outputs": [],
      "stateMutability": "nonpayable",
      "type": "function"
    },
    {
      "inputs": [
        {
          "internalType": "address",
          "name": "_bankAddress",
          "type": "address"
        }
      ],
      "name": "reportBank",
      "outputs": [],
      "stateMutability": "nonpayable",
      "type": "function"
    },
    {
      "inputs": [
        {
          "internalType": "string",
          "name": "_userName",
          "type": "string"
        }
      ],
      "name": "upVoteCustomer",
      "outputs": [],
      "stateMutability": "nonpayable",
      "type": "function"
    },
    {
      "inputs": [
        {
          "internalType": "address",
          "name": "_bankAddress",
          "type": "address"
        }
      ],
      "name": "viewBankDetails",
      "outputs": [
        {
          "internalType": "string",
          "name": "",
          "type": "string"
        },
        {
          "internalType": "string",
          "name": "",
          "type": "string"
        },
        {
          "internalType": "bool",
          "name": "",
          "type": "bool"
        },
        {
          "internalType": "uint256",
          "name": "",
          "type": "uint256"
        },
        {
          "internalType": "uint256",
          "name": "",
          "type": "uint256"
        },
        {
          "internalType": "address",
          "name": "",
          "type": "address"
        }
      ],
      "stateMutability": "view",
      "type": "function"
    },
    {
      "inputs": [
        {
          "internalType": "string",
          "name": "_userName",
          "type": "string"
        }
      ],
      "name": "viewCustomer",
      "outputs": [
        {
          "internalType": "string",
          "name": "",
          "type": "string"
        },
        {
          "internalType": "string",
          "name": "",
          "type": "string"
        },
        {
          "internalType": "bool",
          "name": "",
          "type": "bool"
        },
        {
          "internalType": "uint256",
          "name": "",
          "type": "uint256"
        },
        {
          "internalType": "uint256",
          "name": "",
          "type": "uint256"
        },
        {
          "internalType": "address",
          "name": "",
          "type": "address"
        }
      ],
      "stateMutability": "view",
      "type": "function"
    }
  ],
  "bytecode": "0x608060405234801561001057600080fd5b50336000806101000a81548173ffffffffffffffffffffffffffffffffffffffff021916908373ffffffffffffffffffffffffffffffffffffffff160217905550612904806100606000396000f3fe608060405234801561001057600080fd5b50600436106100cf5760003560e01c80636cba00e61161008c5780639649650c116100665780639649650c14610216578063a5a4980014610232578063b9da4af81461024e578063f72860ca1461026a576100cf565b80636cba00e6146101a957806382e0438a146101c557806388cc8d8d146101e1576100cf565b8063107925bb146100d45780632960ca48146101095780633190abc01461012557806347f8868914610141578063569e64bc1461015d5780635ec2a7f214610179575b600080fd5b6100ee60048036038101906100e99190611d2d565b610286565b60405161010096959493929190611e6a565b60405180910390f35b610123600480360381019061011e9190611f31565b610563565b005b61013f600480360381019061013a9190611f71565b61064f565b005b61015b60048036038101906101569190611fe9565b6108cb565b005b61017760048036038101906101729190611d2d565b610b3d565b005b610193600480360381019061018e9190612074565b610c9f565b6040516101a091906120a1565b60405180910390f35b6101c360048036038101906101be9190611d2d565b610ceb565b005b6101df60048036038101906101da9190611d2d565b610e06565b005b6101fb60048036038101906101f69190612074565b610f68565b60405161020d96959493929190611e6a565b60405180910390f35b610230600480360381019061022b9190612074565b61125b565b005b61024c60048036038101906102479190612074565b611399565b005b61026860048036038101906102639190611f71565b6114e6565b005b610284600480360381019061027f9190611f71565b61186e565b005b606080600080600080600073ffffffffffffffffffffffffffffffffffffffff166001886040516102b791906120f8565b908152602001604051809103902060050160009054906101000a900473ffffffffffffffffffffffffffffffffffffffff1673ffffffffffffffffffffffffffffffffffffffff160361033f576040517f08c379a000000000000000000000000000000000000000000000000000000000815260040161033690612181565b60405180910390fd5b60018760405161034f91906120f8565b908152602001604051809103902060000160018860405161037091906120f8565b908152602001604051809103902060010160018960405161039191906120f8565b908152602001604051809103902060020160009054906101000a900460ff1660018a6040516103c091906120f8565b90815260200160405180910390206003015460018b6040516103e291906120f8565b90815260200160405180910390206004015460018c60405161040491906120f8565b908152602001604051809103902060050160009054906101000a900473ffffffffffffffffffffffffffffffffffffffff16858054610442906121d0565b80601f016020809104026020016040519081016040528092919081815260200182805461046e906121d0565b80156104bb5780601f10610490576101008083540402835291602001916104bb565b820191906000526020600020905b81548152906001019060200180831161049e57829003601f168201915b505050505095508480546104ce906121d0565b80601f01602080910402602001604051908101604052809291908181526020018280546104fa906121d0565b80156105475780601f1061051c57610100808354040283529160200191610547565b820191906000526020600020905b81548152906001019060200180831161052a57829003601f168201915b5050505050945095509550955095509550955091939550919395565b60008054906101000a900473ffffffffffffffffffffffffffffffffffffffff1673ffffffffffffffffffffffffffffffffffffffff163373ffffffffffffffffffffffffffffffffffffffff16146105f1576040517f08c379a00000000000000000000000000000000000000000000000000000000081526004016105e89061224d565b60405180910390fd5b81600260008373ffffffffffffffffffffffffffffffffffffffff1673ffffffffffffffffffffffffffffffffffffffff16815260200190815260200160002060040160006101000a81548160ff0219169083151502179055505050565b600073ffffffffffffffffffffffffffffffffffffffff16600260008073ffffffffffffffffffffffffffffffffffffffff1673ffffffffffffffffffffffffffffffffffffffff16815260200190815260200160002060010160009054906101000a900473ffffffffffffffffffffffffffffffffffffffff1673ffffffffffffffffffffffffffffffffffffffff1614610720576040517f08c379a0000000000000000000000000000000000000000000000000000000008152600401610717906122b9565b60405180910390fd5b600073ffffffffffffffffffffffffffffffffffffffff1660018360405161074891906120f8565b908152602001604051809103902060050160009054906101000a900473ffffffffffffffffffffffffffffffffffffffff1673ffffffffffffffffffffffffffffffffffffffff16146107d0576040517f08c379a00000000000000000000000000000000000000000000000000000000081526004016107c790612371565b60405180910390fd5b816001836040516107e191906120f8565b908152602001604051809103902060000190816107fe919061253d565b508060018360405161081091906120f8565b9081526020016040518091039020600101908161082d919061253d565b506001808360405161083f91906120f8565b908152602001604051809103902060020160006101000a81548160ff0219169083151502179055503360018360405161087891906120f8565b908152602001604051809103902060050160006101000a81548173ffffffffffffffffffffffffffffffffffffffff021916908373ffffffffffffffffffffffffffffffffffffffff1602179055505050565b60008054906101000a900473ffffffffffffffffffffffffffffffffffffffff1673ffffffffffffffffffffffffffffffffffffffff163373ffffffffffffffffffffffffffffffffffffffff1614610959576040517f08c379a00000000000000000000000000000000000000000000000000000000081526004016109509061224d565b60405180910390fd5b82600260008373ffffffffffffffffffffffffffffffffffffffff1673ffffffffffffffffffffffffffffffffffffffff16815260200190815260200160002060000190816109a8919061253d565b5080600260008373ffffffffffffffffffffffffffffffffffffffff1673ffffffffffffffffffffffffffffffffffffffff16815260200190815260200160002060010160006101000a81548173ffffffffffffffffffffffffffffffffffffffff021916908373ffffffffffffffffffffffffffffffffffffffff16021790555081600260008373ffffffffffffffffffffffffffffffffffffffff1673ffffffffffffffffffffffffffffffffffffffff1681526020019081526020016000206005019081610a79919061253d565b506001600260008373ffffffffffffffffffffffffffffffffffffffff1673ffffffffffffffffffffffffffffffffffffffff16815260200190815260200160002060040160006101000a81548160ff0219169083151502179055506003819080600181540180825580915050600190039060005260206000200160009091909190916101000a81548173ffffffffffffffffffffffffffffffffffffffff021916908373ffffffffffffffffffffffffffffffffffffffff160217905550505050565b60001515600182604051610b5191906120f8565b908152602001604051809103902060020160009054906101000a900460ff16151503610bb2576040517f08c379a0000000000000000000000000000000000000000000000000000000008152600401610ba99061265b565b60405180910390fd5b600260008073ffffffffffffffffffffffffffffffffffffffff1673ffffffffffffffffffffffffffffffffffffffff16815260200190815260200160002060040160009054906101000a900460ff16610c41576040517f08c379a0000000000000000000000000000000000000000000000000000000008152600401610c38906126c7565b60405180910390fd5b60018082604051610c5291906120f8565b908152602001604051809103902060040154610c6e9190612716565b600182604051610c7e91906120f8565b908152602001604051809103902060040181905550610c9c81611a79565b50565b6000600260008373ffffffffffffffffffffffffffffffffffffffff1673ffffffffffffffffffffffffffffffffffffffff168152602001908152602001600020600201549050919050565b600073ffffffffffffffffffffffffffffffffffffffff16600482604051610d1391906120f8565b908152602001604051809103902060010160009054906101000a900473ffffffffffffffffffffffffffffffffffffffff1673ffffffffffffffffffffffffffffffffffffffff1614610d9b576040517f08c379a0000000000000000000000000000000000000000000000000000000008152600401610d92906127bc565b60405180910390fd5b600481604051610dab91906120f8565b908152602001604051809103902060008082016000610dca9190611b76565b6001820160006101000a81549073ffffffffffffffffffffffffffffffffffffffff0219169055600282016000610e019190611b76565b505050565b60001515600182604051610e1a91906120f8565b908152602001604051809103902060020160009054906101000a900460ff16151503610e7b576040517f08c379a0000000000000000000000000000000000000000000000000000000008152600401610e729061265b565b60405180910390fd5b600260008073ffffffffffffffffffffffffffffffffffffffff1673ffffffffffffffffffffffffffffffffffffffff16815260200190815260200160002060040160009054906101000a900460ff16610f0a576040517f08c379a0000000000000000000000000000000000000000000000000000000008152600401610f01906126c7565b60405180910390fd5b60018082604051610f1b91906120f8565b908152602001604051809103902060030154610f379190612716565b600182604051610f4791906120f8565b908152602001604051809103902060030181905550610f6581611a79565b50565b606080600080600080600260008873ffffffffffffffffffffffffffffffffffffffff1673ffffffffffffffffffffffffffffffffffffffff168152602001908152602001600020600001600260008973ffffffffffffffffffffffffffffffffffffffff1673ffffffffffffffffffffffffffffffffffffffff168152602001908152602001600020600501600260008a73ffffffffffffffffffffffffffffffffffffffff1673ffffffffffffffffffffffffffffffffffffffff16815260200190815260200160002060040160009054906101000a900460ff16600260008b73ffffffffffffffffffffffffffffffffffffffff1673ffffffffffffffffffffffffffffffffffffffff16815260200190815260200160002060020154600260008c73ffffffffffffffffffffffffffffffffffffffff1673ffffffffffffffffffffffffffffffffffffffff16815260200190815260200160002060030154600260008d73ffffffffffffffffffffffffffffffffffffffff1673ffffffffffffffffffffffffffffffffffffffff16815260200190815260200160002060010160009054906101000a900473ffffffffffffffffffffffffffffffffffffffff1685805461113a906121d0565b80601f0160208091040260200160405190810160405280929190818152602001828054611166906121d0565b80156111b35780601f10611188576101008083540402835291602001916111b3565b820191906000526020600020905b81548152906001019060200180831161119657829003601f168201915b505050505095508480546111c6906121d0565b80601f01602080910402602001604051908101604052809291908181526020018280546111f2906121d0565b801561123f5780601f106112145761010080835404028352916020019161123f565b820191906000526020600020905b81548152906001019060200180831161122257829003601f168201915b5050505050945095509550955095509550955091939550919395565b60008054906101000a900473ffffffffffffffffffffffffffffffffffffffff1673ffffffffffffffffffffffffffffffffffffffff163373ffffffffffffffffffffffffffffffffffffffff16146112e9576040517f08c379a00000000000000000000000000000000000000000000000000000000081526004016112e09061224d565b60405180910390fd5b600260008273ffffffffffffffffffffffffffffffffffffffff1673ffffffffffffffffffffffffffffffffffffffff168152602001908152602001600020600080820160006113399190611b76565b6001820160006101000a81549073ffffffffffffffffffffffffffffffffffffffff0219169055600282016000905560038201600090556004820160006101000a81549060ff02191690556005820160006113949190611b76565b505050565b6001600260008373ffffffffffffffffffffffffffffffffffffffff1673ffffffffffffffffffffffffffffffffffffffff168152602001908152602001600020600201546113e89190612716565b600260008373ffffffffffffffffffffffffffffffffffffffff1673ffffffffffffffffffffffffffffffffffffffff168152602001908152602001600020600201819055506003808054905061143f919061280b565b600260008373ffffffffffffffffffffffffffffffffffffffff1673ffffffffffffffffffffffffffffffffffffffff16815260200190815260200160002060020154106114e3576000600260008373ffffffffffffffffffffffffffffffffffffffff1673ffffffffffffffffffffffffffffffffffffffff16815260200190815260200160002060040160006101000a81548160ff0219169083151502179055505b50565b600073ffffffffffffffffffffffffffffffffffffffff16600260008073ffffffffffffffffffffffffffffffffffffffff1673ffffffffffffffffffffffffffffffffffffffff16815260200190815260200160002060010160009054906101000a900473ffffffffffffffffffffffffffffffffffffffff1673ffffffffffffffffffffffffffffffffffffffff16146115b7576040517f08c379a00000000000000000000000000000000000000000000000000000000081526004016115ae906122b9565b60405180910390fd5b600073ffffffffffffffffffffffffffffffffffffffff166001836040516115df91906120f8565b908152602001604051809103902060050160009054906101000a900473ffffffffffffffffffffffffffffffffffffffff1673ffffffffffffffffffffffffffffffffffffffff1614611667576040517f08c379a000000000000000000000000000000000000000000000000000000000815260040161165e90612371565b60405180910390fd5b600073ffffffffffffffffffffffffffffffffffffffff1660048360405161168f91906120f8565b908152602001604051809103902060010160009054906101000a900473ffffffffffffffffffffffffffffffffffffffff1673ffffffffffffffffffffffffffffffffffffffff1614611717576040517f08c379a000000000000000000000000000000000000000000000000000000000815260040161170e906128ae565b60405180910390fd5b8160048360405161172891906120f8565b90815260200160405180910390206000019081611745919061253d565b508060048360405161175791906120f8565b90815260200160405180910390206002019081611774919061253d565b503360048360405161178691906120f8565b908152602001604051809103902060010160006101000a81548173ffffffffffffffffffffffffffffffffffffffff021916908373ffffffffffffffffffffffffffffffffffffffff1602179055506001600260008073ffffffffffffffffffffffffffffffffffffffff1673ffffffffffffffffffffffffffffffffffffffff168152602001908152602001600020600301546118249190612716565b600260008073ffffffffffffffffffffffffffffffffffffffff1673ffffffffffffffffffffffffffffffffffffffff168152602001908152602001600020600301819055505050565b600073ffffffffffffffffffffffffffffffffffffffff16600260008073ffffffffffffffffffffffffffffffffffffffff1673ffffffffffffffffffffffffffffffffffffffff16815260200190815260200160002060010160009054906101000a900473ffffffffffffffffffffffffffffffffffffffff1673ffffffffffffffffffffffffffffffffffffffff161461193f576040517f08c379a0000000000000000000000000000000000000000000000000000000008152600401611936906122b9565b60405180910390fd5b600073ffffffffffffffffffffffffffffffffffffffff1660018360405161196791906120f8565b908152602001604051809103902060050160009054906101000a900473ffffffffffffffffffffffffffffffffffffffff1673ffffffffffffffffffffffffffffffffffffffff16036119ef576040517f08c379a00000000000000000000000000000000000000000000000000000000081526004016119e690612181565b60405180910390fd5b6119f882610ceb565b6000600183604051611a0a91906120f8565b9081526020016040518091039020600401819055506000600183604051611a3191906120f8565b90815260200160405180910390206003018190555080600183604051611a5791906120f8565b90815260200160405180910390206001019081611a74919061253d565b505050565b60038080549050611a8a919061280b565b600182604051611a9a91906120f8565b908152602001604051809103902060030154101580611afa5750600181604051611ac491906120f8565b908152602001604051809103902060040154600182604051611ae691906120f8565b908152602001604051809103902060030154115b15611b3a576000600182604051611b1191906120f8565b908152602001604051809103902060020160006101000a81548160ff0219169083151502179055505b60018082604051611b4b91906120f8565b908152602001604051809103902060020160006101000a81548160ff02191690831515021790555050565b508054611b82906121d0565b6000825580601f10611b945750611bb3565b601f016020900490600052602060002090810190611bb29190611bb6565b5b50565b5b80821115611bcf576000816000905550600101611bb7565b5090565b6000604051905090565b600080fd5b600080fd5b600080fd5b600080fd5b6000601f19601f8301169050919050565b7f4e487b7100000000000000000000000000000000000000000000000000000000600052604160045260246000fd5b611c3a82611bf1565b810181811067ffffffffffffffff82111715611c5957611c58611c02565b5b80604052505050565b6000611c6c611bd3565b9050611c788282611c31565b919050565b600067ffffffffffffffff821115611c9857611c97611c02565b5b611ca182611bf1565b9050602081019050919050565b82818337600083830152505050565b6000611cd0611ccb84611c7d565b611c62565b905082815260208101848484011115611cec57611ceb611bec565b5b611cf7848285611cae565b509392505050565b600082601f830112611d1457611d13611be7565b5b8135611d24848260208601611cbd565b91505092915050565b600060208284031215611d4357611d42611bdd565b5b600082013567ffffffffffffffff811115611d6157611d60611be2565b5b611d6d84828501611cff565b91505092915050565b600081519050919050565b600082825260208201905092915050565b60005b83811015611db0578082015181840152602081019050611d95565b60008484015250505050565b6000611dc782611d76565b611dd18185611d81565b9350611de1818560208601611d92565b611dea81611bf1565b840191505092915050565b60008115159050919050565b611e0a81611df5565b82525050565b6000819050919050565b611e2381611e10565b82525050565b600073ffffffffffffffffffffffffffffffffffffffff82169050919050565b6000611e5482611e29565b9050919050565b611e6481611e49565b82525050565b600060c0820190508181036000830152611e848189611dbc565b90508181036020830152611e988188611dbc565b9050611ea76040830187611e01565b611eb46060830186611e1a565b611ec16080830185611e1a565b611ece60a0830184611e5b565b979650505050505050565b611ee281611df5565b8114611eed57600080fd5b50565b600081359050611eff81611ed9565b92915050565b611f0e81611e49565b8114611f1957600080fd5b50565b600081359050611f2b81611f05565b92915050565b60008060408385031215611f4857611f47611bdd565b5b6000611f5685828601611ef0565b9250506020611f6785828601611f1c565b9150509250929050565b60008060408385031215611f8857611f87611bdd565b5b600083013567ffffffffffffffff811115611fa657611fa5611be2565b5b611fb285828601611cff565b925050602083013567ffffffffffffffff811115611fd357611fd2611be2565b5b611fdf85828601611cff565b9150509250929050565b60008060006060848603121561200257612001611bdd565b5b600084013567ffffffffffffffff8111156120205761201f611be2565b5b61202c86828701611cff565b935050602084013567ffffffffffffffff81111561204d5761204c611be2565b5b61205986828701611cff565b925050604061206a86828701611f1c565b9150509250925092565b60006020828403121561208a57612089611bdd565b5b600061209884828501611f1c565b91505092915050565b60006020820190506120b66000830184611e1a565b92915050565b600081905092915050565b60006120d282611d76565b6120dc81856120bc565b93506120ec818560208601611d92565b80840191505092915050565b600061210482846120c7565b915081905092915050565b7f437573746f6d6572206973206e6f742070726573656e7420696e20746865206460008201527f6174616261736500000000000000000000000000000000000000000000000000602082015250565b600061216b602783611d81565b91506121768261210f565b604082019050919050565b6000602082019050818103600083015261219a8161215e565b9050919050565b7f4e487b7100000000000000000000000000000000000000000000000000000000600052602260045260246000fd5b600060028204905060018216806121e857607f821691505b6020821081036121fb576121fa6121a1565b5b50919050565b7f4f6e6c792061646d696e2063616e2072656d6f766520612042616e6b00000000600082015250565b6000612237601c83611d81565b915061224282612201565b602082019050919050565b600060208201905081810360008301526122668161222a565b9050919050565b7f4e6f7420612076616c69642062616e6b00000000000000000000000000000000600082015250565b60006122a3601083611d81565b91506122ae8261226d565b602082019050919050565b600060208201905081810360008301526122d281612296565b9050919050565b7f437573746f6d657220697320616c72656164792070726573656e742c20706c6560008201527f6173652063616c6c206d6f64696679437573746f6d657220746f20656469742060208201527f74686520637573746f6d65722064617461000000000000000000000000000000604082015250565b600061235b605183611d81565b9150612366826122d9565b606082019050919050565b6000602082019050818103600083015261238a8161234e565b9050919050565b60008190508160005260206000209050919050565b60006020601f8301049050919050565b600082821b905092915050565b6000600883026123f37fffffffffffffffffffffffffffffffffffffffffffffffffffffffffffffffff826123b6565b6123fd86836123b6565b95508019841693508086168417925050509392505050565b6000819050919050565b600061243a61243561243084611e10565b612415565b611e10565b9050919050565b6000819050919050565b6124548361241f565b61246861246082612441565b8484546123c3565b825550505050565b600090565b61247d612470565b61248881848461244b565b505050565b5b818110156124ac576124a1600082612475565b60018101905061248e565b5050565b601f8211156124f1576124c281612391565b6124cb846123a6565b810160208510156124da578190505b6124ee6124e6856123a6565b83018261248d565b50505b505050565b600082821c905092915050565b6000612514600019846008026124f6565b1980831691505092915050565b600061252d8383612503565b9150826002028217905092915050565b61254682611d76565b67ffffffffffffffff81111561255f5761255e611c02565b5b61256982546121d0565b6125748282856124b0565b600060209050601f8311600181146125a75760008415612595578287015190505b61259f8582612521565b865550612607565b601f1984166125b586612391565b60005b828110156125dd578489015182556001820191506020850194506020810190506125b8565b868310156125fa57848901516125f6601f891682612503565b8355505b6001600288020188555050505b505050505050565b7f437573746f6d6572206973206e6f742079657420766572696669656400000000600082015250565b6000612645601c83611d81565b91506126508261260f565b602082019050919050565b6000602082019050818103600083015261267481612638565b9050919050565b7f42616e6b206e6f7420616c6c6f77656420746f20766f74650000000000000000600082015250565b60006126b1601883611d81565b91506126bc8261267b565b602082019050919050565b600060208201905081810360008301526126e0816126a4565b9050919050565b7f4e487b7100000000000000000000000000000000000000000000000000000000600052601160045260246000fd5b600061272182611e10565b915061272c83611e10565b9250828201905080821115612744576127436126e7565b5b92915050565b7f4b5943207265717565737420666f722074686520437573746f6d65722069732060008201527f6e6f742070726573656e74000000000000000000000000000000000000000000602082015250565b60006127a6602b83611d81565b91506127b18261274a565b604082019050919050565b600060208201905081810360008301526127d581612799565b9050919050565b7f4e487b7100000000000000000000000000000000000000000000000000000000600052601260045260246000fd5b600061281682611e10565b915061282183611e10565b925082612831576128306127dc565b5b828204905092915050565b7f4b5943207265717565737420666f722074686520437573746f6d65722069732060008201527f616c726561647920726169736564000000000000000000000000000000000000602082015250565b6000612898602e83611d81565b91506128a38261283c565b604082019050919050565b600060208201905081810360008301526128c78161288b565b905091905056fea26469706673582212203eb8538f0a323b8b6ea9e868540fc07c7c49398ab48908a0b4c4cec3de94aad264736f6c63430008110033",
  "linkReferences": {},
  "deployedLinkReferences": {}
}