{
  "_format": "hh-sol-artifact-1",
  "contractName": "BasicMarketPlace",
  "sourceName": "contracts/BasicMarketPlace.sol",
  "abi": [
    {
      "inputs": [],
      "stateMutability": "nonpayable",
      "type": "constructor"
    },
    {
      "anonymous": false,
      "inputs": [
        {
          "indexed": true,
          "internalType": "uint256",
          "name": "_productId",
          "type": "uint256"
        }
      ],
      "name": "savingEvent",
      "type": "event"
    },
    {
      "inputs": [
        {
          "internalType": "string",
          "name": "name",
          "type": "string"
        },
        {
          "internalType": "uint256",
          "name": "price",
          "type": "uint256"
        }
      ],
      "name": "addProduct",
      "outputs": [],
      "stateMutability": "nonpayable",
      "type": "function"
    },
    {
      "inputs": [
        {
          "internalType": "uint256",
          "name": "productId",
          "type": "uint256"
        }
      ],
      "name": "buyProduct",
      "outputs": [],
      "stateMutability": "nonpayable",
      "type": "function"
    },
    {
      "inputs": [
        {
          "internalType": "uint256",
          "name": "productid",
          "type": "uint256"
        }
      ],
      "name": "getProduct",
      "outputs": [
        {
          "components": [
            {
              "internalType": "uint256",
              "name": "id",
              "type": "uint256"
            },
            {
              "internalType": "string",
              "name": "itemName",
              "type": "string"
            },
            {
              "internalType": "address",
              "name": "creator",
              "type": "address"
            },
            {
              "internalType": "address",
              "name": "owner",
              "type": "address"
            },
            {
              "internalType": "uint256",
              "name": "price",
              "type": "uint256"
            },
            {
              "internalType": "bool",
              "name": "isSold",
              "type": "bool"
            }
          ],
          "internalType": "struct BasicMarketPlace.Product",
          "name": "",
          "type": "tuple"
        }
      ],
      "stateMutability": "view",
      "type": "function"
    },
    {
      "inputs": [],
      "name": "getProducts",
      "outputs": [
        {
          "components": [
            {
              "internalType": "uint256",
              "name": "id",
              "type": "uint256"
            },
            {
              "internalType": "string",
              "name": "itemName",
              "type": "string"
            },
            {
              "internalType": "address",
              "name": "creator",
              "type": "address"
            },
            {
              "internalType": "address",
              "name": "owner",
              "type": "address"
            },
            {
              "internalType": "uint256",
              "name": "price",
              "type": "uint256"
            },
            {
              "internalType": "bool",
              "name": "isSold",
              "type": "bool"
            }
          ],
          "internalType": "struct BasicMarketPlace.Product[]",
          "name": "",
          "type": "tuple[]"
        }
      ],
      "stateMutability": "view",
      "type": "function"
    },
    {
      "inputs": [],
      "name": "numProduct",
      "outputs": [
        {
          "internalType": "uint256",
          "name": "",
          "type": "uint256"
        }
      ],
      "stateMutability": "view",
      "type": "function"
    },
    {
      "inputs": [
        {
          "internalType": "uint256",
          "name": "",
          "type": "uint256"
        }
      ],
      "name": "products",
      "outputs": [
        {
          "internalType": "uint256",
          "name": "id",
          "type": "uint256"
        },
        {
          "internalType": "string",
          "name": "itemName",
          "type": "string"
        },
        {
          "internalType": "address",
          "name": "creator",
          "type": "address"
        },
        {
          "internalType": "address",
          "name": "owner",
          "type": "address"
        },
        {
          "internalType": "uint256",
          "name": "price",
          "type": "uint256"
        },
        {
          "internalType": "bool",
          "name": "isSold",
          "type": "bool"
        }
      ],
      "stateMutability": "view",
      "type": "function"
    }
  ],
  "bytecode": "0x608060405234801561001057600080fd5b506000600181905550611232806100286000396000f3fe608060405234801561001057600080fd5b50600436106100625760003560e01c80637acc0b20146100675780638642269e1461009c578063b15247d9146100b8578063b9db15b4146100d4578063c29b2f2014610104578063ddd2e8a914610122575b600080fd5b610081600480360381019061007c91906108ad565b610140565b604051610093969594939291906109d5565b60405180910390f35b6100b660048036038101906100b191906108ad565b610251565b005b6100d260048036038101906100cd9190610b72565b6102cb565b005b6100ee60048036038101906100e991906108ad565b610434565b6040516100fb9190610cce565b60405180910390f35b61010c6105cd565b6040516101199190610e3b565b60405180910390f35b61012a6107f9565b6040516101379190610e5d565b60405180910390f35b600060205280600052604060002060009150905080600001549080600101805461016990610ea7565b80601f016020809104026020016040519081016040528092919081815260200182805461019590610ea7565b80156101e25780601f106101b7576101008083540402835291602001916101e2565b820191906000526020600020905b8154815290600101906020018083116101c557829003601f168201915b5050505050908060020160009054906101000a900473ffffffffffffffffffffffffffffffffffffffff16908060030160009054906101000a900473ffffffffffffffffffffffffffffffffffffffff16908060040154908060050160009054906101000a900460ff16905086565b60008060008381526020019081526020016000209050338160030160006101000a81548173ffffffffffffffffffffffffffffffffffffffff021916908373ffffffffffffffffffffffffffffffffffffffff16021790555060018160050160006101000a81548160ff0219169083151502179055505050565b6040518060c0016040528060015481526020018381526020013373ffffffffffffffffffffffffffffffffffffffff1681526020013373ffffffffffffffffffffffffffffffffffffffff16815260200182815260200160001515815250600080600154815260200190815260200160002060008201518160000155602082015181600101908161035c9190611084565b5060408201518160020160006101000a81548173ffffffffffffffffffffffffffffffffffffffff021916908373ffffffffffffffffffffffffffffffffffffffff16021790555060608201518160030160006101000a81548173ffffffffffffffffffffffffffffffffffffffff021916908373ffffffffffffffffffffffffffffffffffffffff1602179055506080820151816004015560a08201518160050160006101000a81548160ff0219169083151502179055509050506001600081548092919061042b90611185565b91905055505050565b61043c6107ff565b6000808381526020019081526020016000206040518060c00160405290816000820154815260200160018201805461047390610ea7565b80601f016020809104026020016040519081016040528092919081815260200182805461049f90610ea7565b80156104ec5780601f106104c1576101008083540402835291602001916104ec565b820191906000526020600020905b8154815290600101906020018083116104cf57829003601f168201915b505050505081526020016002820160009054906101000a900473ffffffffffffffffffffffffffffffffffffffff1673ffffffffffffffffffffffffffffffffffffffff1673ffffffffffffffffffffffffffffffffffffffff1681526020016003820160009054906101000a900473ffffffffffffffffffffffffffffffffffffffff1673ffffffffffffffffffffffffffffffffffffffff1673ffffffffffffffffffffffffffffffffffffffff168152602001600482015481526020016005820160009054906101000a900460ff1615151515815250509050919050565b6060600060015467ffffffffffffffff8111156105ed576105ec610a47565b5b60405190808252806020026020018201604052801561062657816020015b6106136107ff565b81526020019060019003908161060b5790505b50905060005b6001548110156107f1576000808281526020019081526020016000206040518060c00160405290816000820154815260200160018201805461066d90610ea7565b80601f016020809104026020016040519081016040528092919081815260200182805461069990610ea7565b80156106e65780601f106106bb576101008083540402835291602001916106e6565b820191906000526020600020905b8154815290600101906020018083116106c957829003601f168201915b505050505081526020016002820160009054906101000a900473ffffffffffffffffffffffffffffffffffffffff1673ffffffffffffffffffffffffffffffffffffffff1673ffffffffffffffffffffffffffffffffffffffff1681526020016003820160009054906101000a900473ffffffffffffffffffffffffffffffffffffffff1673ffffffffffffffffffffffffffffffffffffffff1673ffffffffffffffffffffffffffffffffffffffff168152602001600482015481526020016005820160009054906101000a900460ff1615151515815250508282815181106107d3576107d26111cd565b5b602002602001018190525080806107e990611185565b91505061062c565b508091505090565b60015481565b6040518060c001604052806000815260200160608152602001600073ffffffffffffffffffffffffffffffffffffffff168152602001600073ffffffffffffffffffffffffffffffffffffffff168152602001600081526020016000151581525090565b6000604051905090565b600080fd5b600080fd5b6000819050919050565b61088a81610877565b811461089557600080fd5b50565b6000813590506108a781610881565b92915050565b6000602082840312156108c3576108c261086d565b5b60006108d184828501610898565b91505092915050565b6108e381610877565b82525050565b600081519050919050565b600082825260208201905092915050565b60005b83811015610923578082015181840152602081019050610908565b60008484015250505050565b6000601f19601f8301169050919050565b600061094b826108e9565b61095581856108f4565b9350610965818560208601610905565b61096e8161092f565b840191505092915050565b600073ffffffffffffffffffffffffffffffffffffffff82169050919050565b60006109a482610979565b9050919050565b6109b481610999565b82525050565b60008115159050919050565b6109cf816109ba565b82525050565b600060c0820190506109ea60008301896108da565b81810360208301526109fc8188610940565b9050610a0b60408301876109ab565b610a1860608301866109ab565b610a2560808301856108da565b610a3260a08301846109c6565b979650505050505050565b600080fd5b600080fd5b7f4e487b7100000000000000000000000000000000000000000000000000000000600052604160045260246000fd5b610a7f8261092f565b810181811067ffffffffffffffff82111715610a9e57610a9d610a47565b5b80604052505050565b6000610ab1610863565b9050610abd8282610a76565b919050565b600067ffffffffffffffff821115610add57610adc610a47565b5b610ae68261092f565b9050602081019050919050565b82818337600083830152505050565b6000610b15610b1084610ac2565b610aa7565b905082815260208101848484011115610b3157610b30610a42565b5b610b3c848285610af3565b509392505050565b600082601f830112610b5957610b58610a3d565b5b8135610b69848260208601610b02565b91505092915050565b60008060408385031215610b8957610b8861086d565b5b600083013567ffffffffffffffff811115610ba757610ba6610872565b5b610bb385828601610b44565b9250506020610bc485828601610898565b9150509250929050565b610bd781610877565b82525050565b600082825260208201905092915050565b6000610bf9826108e9565b610c038185610bdd565b9350610c13818560208601610905565b610c1c8161092f565b840191505092915050565b610c3081610999565b82525050565b610c3f816109ba565b82525050565b600060c083016000830151610c5d6000860182610bce565b5060208301518482036020860152610c758282610bee565b9150506040830151610c8a6040860182610c27565b506060830151610c9d6060860182610c27565b506080830151610cb06080860182610bce565b5060a0830151610cc360a0860182610c36565b508091505092915050565b60006020820190508181036000830152610ce88184610c45565b905092915050565b600081519050919050565b600082825260208201905092915050565b6000819050602082019050919050565b600060c083016000830151610d346000860182610bce565b5060208301518482036020860152610d4c8282610bee565b9150506040830151610d616040860182610c27565b506060830151610d746060860182610c27565b506080830151610d876080860182610bce565b5060a0830151610d9a60a0860182610c36565b508091505092915050565b6000610db18383610d1c565b905092915050565b6000602082019050919050565b6000610dd182610cf0565b610ddb8185610cfb565b935083602082028501610ded85610d0c565b8060005b85811015610e295784840389528151610e0a8582610da5565b9450610e1583610db9565b925060208a01995050600181019050610df1565b50829750879550505050505092915050565b60006020820190508181036000830152610e558184610dc6565b905092915050565b6000602082019050610e7260008301846108da565b92915050565b7f4e487b7100000000000000000000000000000000000000000000000000000000600052602260045260246000fd5b60006002820490506001821680610ebf57607f821691505b602082108103610ed257610ed1610e78565b5b50919050565b60008190508160005260206000209050919050565b60006020601f8301049050919050565b600082821b905092915050565b600060088302610f3a7fffffffffffffffffffffffffffffffffffffffffffffffffffffffffffffffff82610efd565b610f448683610efd565b95508019841693508086168417925050509392505050565b6000819050919050565b6000610f81610f7c610f7784610877565b610f5c565b610877565b9050919050565b6000819050919050565b610f9b83610f66565b610faf610fa782610f88565b848454610f0a565b825550505050565b600090565b610fc4610fb7565b610fcf818484610f92565b505050565b5b81811015610ff357610fe8600082610fbc565b600181019050610fd5565b5050565b601f8211156110385761100981610ed8565b61101284610eed565b81016020851015611021578190505b61103561102d85610eed565b830182610fd4565b50505b505050565b600082821c905092915050565b600061105b6000198460080261103d565b1980831691505092915050565b6000611074838361104a565b9150826002028217905092915050565b61108d826108e9565b67ffffffffffffffff8111156110a6576110a5610a47565b5b6110b08254610ea7565b6110bb828285610ff7565b600060209050601f8311600181146110ee57600084156110dc578287015190505b6110e68582611068565b86555061114e565b601f1984166110fc86610ed8565b60005b82811015611124578489015182556001820191506020850194506020810190506110ff565b86831015611141578489015161113d601f89168261104a565b8355505b6001600288020188555050505b505050505050565b7f4e487b7100000000000000000000000000000000000000000000000000000000600052601160045260246000fd5b600061119082610877565b91507fffffffffffffffffffffffffffffffffffffffffffffffffffffffffffffffff82036111c2576111c1611156565b5b600182019050919050565b7f4e487b7100000000000000000000000000000000000000000000000000000000600052603260045260246000fdfea2646970667358221220b9642b1212b9a2f8b3f989d28b2800925037ef78bbbc9918733fc47d75cccda664736f6c63430008110033",
  "linkReferences": {},
  "deployedLinkReferences": {}
}